{
  "contracts/TicketResaleMarket.sol": {
    "TicketResaleMarket": {
      "abi": [
        {
          "inputs": [
            {
              "internalType": "address",
              "name": "eventTicketingAddress",
              "type": "address"
            },
            {
              "internalType": "address",
              "name": "ticketNftAddress",
              "type": "address"
            },
            {
              "internalType": "address payable",
              "name": "feeRecipient_",
              "type": "address"
            },
            {
              "internalType": "uint16",
              "name": "royaltyBps_",
              "type": "uint16"
            }
          ],
          "stateMutability": "nonpayable",
          "type": "constructor"
        },
        {
          "inputs": [],
          "name": "InvalidRoyalty",
          "type": "error"
        },
        {
          "inputs": [],
          "name": "NotOwner",
          "type": "error"
        },
        {
          "inputs": [],
          "name": "ReentrancyGuardReentrantCall",
          "type": "error"
        },
        {
          "inputs": [],
          "name": "ZeroAddress",
          "type": "error"
        },
        {
          "anonymous": false,
          "inputs": [
            {
              "indexed": true,
              "internalType": "address",
              "name": "newRecipient",
              "type": "address"
            }
          ],
          "name": "FeeRecipientUpdated",
          "type": "event"
        },
        {
          "anonymous": false,
          "inputs": [
            {
              "indexed": false,
              "internalType": "uint256",
              "name": "newMaxPrice",
              "type": "uint256"
            }
          ],
          "name": "MaxPriceUpdated",
          "type": "event"
        },
        {
          "anonymous": false,
          "inputs": [
            {
              "indexed": true,
              "internalType": "address",
              "name": "previousOwner",
              "type": "address"
            },
            {
              "indexed": true,
              "internalType": "address",
              "name": "newOwner",
              "type": "address"
            }
          ],
          "name": "OwnershipTransferred",
          "type": "event"
        },
        {
          "anonymous": false,
          "inputs": [
            {
              "indexed": false,
              "internalType": "uint16",
              "name": "newRoyaltyBps",
              "type": "uint16"
            }
          ],
          "name": "RoyaltyUpdated",
          "type": "event"
        },
        {
          "anonymous": false,
          "inputs": [
            {
              "indexed": true,
              "internalType": "uint256",
              "name": "tokenId",
              "type": "uint256"
            },
            {
              "indexed": true,
              "internalType": "uint256",
              "name": "ticketId",
              "type": "uint256"
            },
            {
              "indexed": true,
              "internalType": "address",
              "name": "seller",
              "type": "address"
            },
            {
              "indexed": false,
              "internalType": "uint256",
              "name": "price",
              "type": "uint256"
            }
          ],
          "name": "TicketListed",
          "type": "event"
        },
        {
          "anonymous": false,
          "inputs": [
            {
              "indexed": true,
              "internalType": "uint256",
              "name": "tokenId",
              "type": "uint256"
            },
            {
              "indexed": true,
              "internalType": "uint256",
              "name": "ticketId",
              "type": "uint256"
            },
            {
              "indexed": true,
              "internalType": "address",
              "name": "seller",
              "type": "address"
            },
            {
              "indexed": false,
              "internalType": "address",
              "name": "buyer",
              "type": "address"
            },
            {
              "indexed": false,
              "internalType": "uint256",
              "name": "price",
              "type": "uint256"
            },
            {
              "indexed": false,
              "internalType": "uint256",
              "name": "royaltyAmount",
              "type": "uint256"
            }
          ],
          "name": "TicketSold",
          "type": "event"
        },
        {
          "stateMutability": "payable",
          "type": "fallback"
        },
        {
          "inputs": [
            {
              "internalType": "uint256",
              "name": "tokenId",
              "type": "uint256"
            }
          ],
          "name": "buyTicket",
          "outputs": [],
          "stateMutability": "payable",
          "type": "function"
        },
        {
          "inputs": [
            {
              "internalType": "uint256",
              "name": "tokenId",
              "type": "uint256"
            }
          ],
          "name": "cancelListing",
          "outputs": [],
          "stateMutability": "nonpayable",
          "type": "function"
        },
        {
          "inputs": [],
          "name": "eventTicketing",
          "outputs": [
            {
              "internalType": "contract IEventTicketing",
              "name": "",
              "type": "address"
            }
          ],
          "stateMutability": "view",
          "type": "function"
        },
        {
          "inputs": [],
          "name": "feeRecipient",
          "outputs": [
            {
              "internalType": "address payable",
              "name": "",
              "type": "address"
            }
          ],
          "stateMutability": "view",
          "type": "function"
        },
        {
          "inputs": [
            {
              "internalType": "uint256",
              "name": "tokenId",
              "type": "uint256"
            }
          ],
          "name": "getListing",
          "outputs": [
            {
              "internalType": "uint256",
              "name": "ticketId_",
              "type": "uint256"
            },
            {
              "internalType": "uint256",
              "name": "tokenId_2",
              "type": "uint256"
            },
            {
              "internalType": "address",
              "name": "seller",
              "type": "address"
            },
            {
              "internalType": "uint256",
              "name": "price",
              "type": "uint256"
            },
            {
              "internalType": "bool",
              "name": "active",
              "type": "bool"
            }
          ],
          "stateMutability": "view",
          "type": "function"
        },
        {
          "inputs": [
            {
              "internalType": "uint256",
              "name": "tokenId",
              "type": "uint256"
            },
            {
              "internalType": "uint256",
              "name": "price",
              "type": "uint256"
            }
          ],
          "name": "listTicket",
          "outputs": [],
          "stateMutability": "nonpayable",
          "type": "function"
        },
        {
          "inputs": [
            {
              "internalType": "uint256",
              "name": "",
              "type": "uint256"
            }
          ],
          "name": "listings",
          "outputs": [
            {
              "internalType": "uint256",
              "name": "ticketId",
              "type": "uint256"
            },
            {
              "internalType": "uint256",
              "name": "tokenId",
              "type": "uint256"
            },
            {
              "internalType": "address",
              "name": "seller",
              "type": "address"
            },
            {
              "internalType": "uint256",
              "name": "price",
              "type": "uint256"
            },
            {
              "internalType": "bool",
              "name": "active",
              "type": "bool"
            }
          ],
          "stateMutability": "view",
          "type": "function"
        },
        {
          "inputs": [],
          "name": "maxPrice",
          "outputs": [
            {
              "internalType": "uint256",
              "name": "",
              "type": "uint256"
            }
          ],
          "stateMutability": "view",
          "type": "function"
        },
        {
          "inputs": [],
          "name": "owner",
          "outputs": [
            {
              "internalType": "address",
              "name": "",
              "type": "address"
            }
          ],
          "stateMutability": "view",
          "type": "function"
        },
        {
          "inputs": [],
          "name": "royaltyBps",
          "outputs": [
            {
              "internalType": "uint16",
              "name": "",
              "type": "uint16"
            }
          ],
          "stateMutability": "view",
          "type": "function"
        },
        {
          "inputs": [
            {
              "internalType": "address payable",
              "name": "newRecipient",
              "type": "address"
            }
          ],
          "name": "setFeeRecipient",
          "outputs": [],
          "stateMutability": "nonpayable",
          "type": "function"
        },
        {
          "inputs": [
            {
              "internalType": "uint256",
              "name": "newMaxPrice",
              "type": "uint256"
            }
          ],
          "name": "setMaxPrice",
          "outputs": [],
          "stateMutability": "nonpayable",
          "type": "function"
        },
        {
          "inputs": [
            {
              "internalType": "uint16",
              "name": "newRoyaltyBps",
              "type": "uint16"
            }
          ],
          "name": "setRoyalty",
          "outputs": [],
          "stateMutability": "nonpayable",
          "type": "function"
        },
        {
          "inputs": [],
          "name": "ticketNft",
          "outputs": [
            {
              "internalType": "contract IERC721",
              "name": "",
              "type": "address"
            }
          ],
          "stateMutability": "view",
          "type": "function"
        },
        {
          "inputs": [
            {
              "internalType": "address",
              "name": "newOwner",
              "type": "address"
            }
          ],
          "name": "transferOwnership",
          "outputs": [],
          "stateMutability": "nonpayable",
          "type": "function"
        },
        {
          "stateMutability": "payable",
          "type": "receive"
        }
      ],
      "evm": {
        "bytecode": {
          "linkReferences": {},
          "object": "60803461016557601f6113c938819003918201601f19168301916001600160401b0383118484101761016a578084926080946040528339810103126101655761004781610180565b9061005460208201610180565b604082015190926001600160a01b03821692909183900361016557606001519061ffff821690818303610165576001600055683635c9adc5dea000006005556001600160a01b03169081158015610154575b801561014c575b61013b576127101061012a57600180546001600160a01b031990811633179091556002805482169290921790915560038054600480549093169094179091556001600160b01b03199092166001600160a01b03939093169290921760a09290921b61ffff60a01b1691909117905560405161123490816101958239f35b63e0e54ced60e01b60005260046000fd5b63d92e233d60e01b60005260046000fd5b5083156100ad565b506001600160a01b038516156100a6565b600080fd5b634e487b7160e01b600052604160045260246000fd5b51906001600160a01b03821682036101655756fe6080806040526004361015610097575b5036156100525760405162461bcd60e51b815260206004820152601460248201527314995cd85b194e881a5b9d985b1a590818d85b1b60621b6044820152606490fd5b60405162461bcd60e51b815260206004820152601c60248201527f526573616c653a2073656e6420766961206275795469636b65742829000000006044820152606490fd5b600090813560e01c908163107a274a14610fd857508063305a67a814610f20578063305a905a14610b4d57806336e79a5a14610a6e5780634690484014610a455780636188c42d14610a1c57806367dd74ca146104785780638da5cb5b1461044f578063c63adb2b1461042a578063de74e57b146103bb578063e09b2a6214610392578063e38d6b5c14610374578063e74b981b146102c3578063f2fde38b146101fb5763f43952e30361000f57346101f85760203660031901126101f857600154600435906001600160a01b031633036101e95780156101a4576020817f202e0ba938a78b3edea663296e8a06054c65df48fc652817d1e4231351a4c1e292600555604051908152a180f35b60405162461bcd60e51b815260206004820152601d60248201527f526573616c653a206d6178207072696365206d757374206265203e20300000006044820152606490fd5b6330cd747160e01b8252600482fd5b80fd5b50346101f85760203660031901126101f8576004356001600160a01b038116908190036102bf576001546001600160a01b038116338190036102b05782156102745782907f8be0079c531659141344cd1fd0a4f28419497f9722a3daafe3b4186f6b6457e08580a36001600160a01b0319161760015580f35b60405162461bcd60e51b8152602060048201526014602482015273526573616c653a207a65726f206164647265737360601b6044820152606490fd5b6330cd747160e01b8452600484fd5b5080fd5b50346101f85760203660031901126101f8576004356001600160a01b038116908190036102bf576001546001600160a01b031633036101e957801561033b57600480546001600160a01b031916821790557f7a7b5a0a132f9e0581eb8527f66eae9ee89c2a3e79d4ac7e41a1f1f4d48a7fc28280a280f35b60405162461bcd60e51b81526020600482015260116024820152702932b9b0b6329d103d32b9379030b2323960791b6044820152606490fd5b50346101f857806003193601126101f8576020600554604051908152f35b50346101f857806003193601126101f8576003546040516001600160a01b039091168152602090f35b50346101f85760203660031901126101f85760048035825260066020908152604092839020805460018201546002830154600384015493909501548651928352938201526001600160a01b0390931693830193909352606082019290925260ff9091161515608082015260a090f35b50346101f857806003193601126101f857602061ffff60035460a01c16604051908152f35b50346101f857806003193601126101f8576001546040516001600160a01b039091168152602090f35b5060203660031901126101f8576004356002825414610a0d5760028255808252600660205260408220600481019081546104b460ff82166110b9565b6003820154908134106109c857600283019360018060a01b038554169182331461098b5760018060a01b036002541660208654602460405180948193632e31150760e11b835260048301525afa9081156108b15761051e9160ff918b9161095c575b50161561114f565b6003546040516331a9108f60e11b8152600481018990526001600160a01b0390911690602081602481855afa80156108ed5785918b9161093d575b506001600160a01b0316036108f85760405163e985e9c560e01b81526001600160a01b038516600482015230602482015290602082604481845afa9182156108ed578a926108bc575b508115610842575b50156107fd5760ff191690556003549061ffff8260a01c168084029084820414841517156107e957612710889104966105e3888661119b565b936001600160a01b031692833b156107e557606490836040519586948593632142170760e11b8552600485015233602485015260448401525af180156107da576107c6575b5085908561075a575b806106ec575b5050803411610691575b60607ffffc3deb35aa9e4517f4b252905c151b319d34187db6992abdc3dcd1b0ae382d91600184015493549460018060a01b03905416956040519133835260208301526040820152a46001815580f35b8480808061069f853461119b565b335af16106aa6111be565b506106415760405162461bcd60e51b815260206004820152601560248201527414995cd85b194e881c99599d5b990819985a5b1959605a1b6044820152606490fd5b8454829182918291906001600160a01b03165af16107086111be565b5015610715578438610637565b60405162461bcd60e51b815260206004820152601e60248201527f526573616c653a2073656c6c6572207472616e73666572206661696c656400006044820152606490fd5b908080808860018060a01b03600454165af16107746111be565b5015610781578590610631565b60405162461bcd60e51b815260206004820152601f60248201527f526573616c653a20726f79616c7479207472616e73666572206661696c6564006044820152606490fd5b866107d391979297611097565b9438610628565b6040513d89823e3d90fd5b8280fd5b634e487b7160e01b88526011600452602488fd5b60405162461bcd60e51b815260206004820152601860248201527f526573616c653a20617070726f76616c206d697373696e6700000000000000006044820152606490fd5b602491506020906040519283809263020604bf60e21b82528c60048301525afa9081156108b1578991610882575b506001600160a01b03163014386105aa565b6108a4915060203d6020116108aa575b61089c8183611097565b8101906110fa565b38610870565b503d610892565b6040513d8b823e3d90fd5b6108df91925060203d6020116108e6575b6108d78183611097565b81019061111e565b90386105a2565b503d6108cd565b6040513d8c823e3d90fd5b60405162461bcd60e51b815260206004820152601e60248201527f526573616c653a2073656c6c6572206e6f206c6f6e676572206f776e657200006044820152606490fd5b610956915060203d6020116108aa5761089c8183611097565b38610559565b61097e915060203d602011610984575b6109768183611097565b810190611136565b38610516565b503d61096c565b60405162461bcd60e51b8152602060048201526015602482015274526573616c653a2073656c6620707572636861736560581b6044820152606490fd5b60405162461bcd60e51b815260206004820152601c60248201527f526573616c653a20696e73756666696369656e74207061796d656e74000000006044820152606490fd5b633ee5aeb560e01b8252600482fd5b50346101f857806003193601126101f8576002546040516001600160a01b039091168152602090f35b50346101f857806003193601126101f8576004546040516001600160a01b039091168152602090f35b50346101f85760203660031901126101f85760043561ffff8116908181036107e5576001546001600160a01b03163303610b3e576127108211610af9576003805461ffff60a01b191660a09290921b61ffff60a01b169190911790556040519081527fda0fdc743bf03c626bcac6e6509af1b15dfa6dabfde58682f6706b85efa9f9b490602090a180f35b60405162461bcd60e51b815260206004820152601860248201527f526573616c653a20726f79616c747920746f6f206869676800000000000000006044820152606490fd5b6330cd747160e01b8352600483fd5b50346101f85760403660031901126101f85760243560043581151580610f14575b15610ed7576003546040516331a9108f60e11b8152600481018390526001600160a01b039091169190602081602481865afa908115610d3c578591610eb8575b50336001600160a01b0390911603610e7f5760405163e985e9c560e01b8152336004820152306024820152602081604481865afa908115610d3c578591610e60575b508015610e04575b15610dc857808452600660205260ff600460408620015416610d8a576020602492604051938480926333355e0b60e11b82528560048301525afa918215610d7f578492610d47575b50600254604051632e31150760e11b81526004810184905290602090829060249082906001600160a01b03165afa908115610d3c57610c8a9160ff91879161095c5750161561114f565b604051610c9681611065565b82815260046020820191838352604081013381526060820190878252608083019460018652868a52600660205260408a2093518455516001840155600283019060018060a01b039051166bffffffffffffffffffffffff60a01b825416179055516003820155019051151560ff801983541691161790556040519283527f8b84647ec667515d9ce59e74ab9bb64476ec404345ebb9dfc3ea275bb6d8ee9b60203394a480f35b6040513d87823e3d90fd5b9091506020813d602011610d77575b81610d6360209383611097565b81010312610d7357519038610c40565b8380fd5b3d9150610d56565b6040513d86823e3d90fd5b60405162461bcd60e51b815260206004820152601660248201527514995cd85b194e88185b1c9958591e481b1a5cdd195960521b6044820152606490fd5b60405162461bcd60e51b815260206004820152601460248201527314995cd85b194e881b9bdd08185c1c1c9bdd995960621b6044820152606490fd5b5060405163020604bf60e21b815260048101829052602081602481865afa908115610d3c578591610e41575b506001600160a01b03163014610bf8565b610e5a915060203d6020116108aa5761089c8183611097565b38610e30565b610e79915060203d6020116108e6576108d78183611097565b38610bf0565b60405162461bcd60e51b81526020600482015260116024820152702932b9b0b6329d103737ba1037bbb732b960791b6044820152606490fd5b610ed1915060203d6020116108aa5761089c8183611097565b38610bae565b60405162461bcd60e51b8152602060048201526015602482015274526573616c653a20696e76616c696420707269636560581b6044820152606490fd5b50600554821115610b6e565b50346101f85760203660031901126101f857600435808252600660205260408220600481018054610f5360ff82166110b9565b60028301546001600160a01b03163303610f9e5760ff1916905554604051918383527f8b84647ec667515d9ce59e74ab9bb64476ec404345ebb9dfc3ea275bb6d8ee9b60203394a480f35b60405162461bcd60e51b81526020600482015260126024820152712932b9b0b6329d103737ba1039b2b63632b960711b6044820152606490fd5b82346101f85760203660031901126101f857604090600435815260066020522061100182611065565b80548083526001820154602080850182905260028401546001600160a01b031660408087018290526003860154606080890182905260049097015460ff1615156080988901819052825196875293860194909452840152928201529182015260a090f35b60a0810190811067ffffffffffffffff82111761108157604052565b634e487b7160e01b600052604160045260246000fd5b90601f8019910116810190811067ffffffffffffffff82111761108157604052565b156110c057565b60405162461bcd60e51b815260206004820152601260248201527114995cd85b194e881b9bdd081b1a5cdd195960721b6044820152606490fd5b9081602091031261111957516001600160a01b03811681036111195790565b600080fd5b90816020910312611119575180151581036111195790565b90816020910312611119575160ff811681036111195790565b1561115657565b60405162461bcd60e51b815260206004820152601a60248201527f526573616c653a206576656e74206e6f74207570636f6d696e670000000000006044820152606490fd5b919082039182116111a857565b634e487b7160e01b600052601160045260246000fd5b3d156111f9573d9067ffffffffffffffff821161108157604051916111ed601f8201601f191660200184611097565b82523d6000602084013e565b60609056fea2646970667358221220994425a2186a26e951954bf0073a206466c900787573d10612f9838886a64f8f64736f6c634300081c0033",
          "opcodes": "PUSH1 0x80 CALLVALUE PUSH2 0x165 JUMPI PUSH1 0x1F PUSH2 0x13C9 CODESIZE DUP2 SWAP1 SUB SWAP2 DUP3 ADD PUSH1 0x1F NOT AND DUP4 ADD SWAP2 PUSH1 0x1 PUSH1 0x1 PUSH1 0x40 SHL SUB DUP4 GT DUP5 DUP5 LT OR PUSH2 0x16A JUMPI DUP1 DUP5 SWAP3 PUSH1 0x80 SWAP5 PUSH1 0x40 MSTORE DUP4 CODECOPY DUP2 ADD SUB SLT PUSH2 0x165 JUMPI PUSH2 0x47 DUP2 PUSH2 0x180 JUMP JUMPDEST SWAP1 PUSH2 0x54 PUSH1 0x20 DUP3 ADD PUSH2 0x180 JUMP JUMPDEST PUSH1 0x40 DUP3 ADD MLOAD SWAP1 SWAP3 PUSH1 0x1 PUSH1 0x1 PUSH1 0xA0 SHL SUB DUP3 AND SWAP3 SWAP1 SWAP2 DUP4 SWAP1 SUB PUSH2 0x165 JUMPI PUSH1 0x60 ADD MLOAD SWAP1 PUSH2 0xFFFF DUP3 AND SWAP1 DUP2 DUP4 SUB PUSH2 0x165 JUMPI PUSH1 0x1 PUSH1 0x0 SSTORE PUSH9 0x3635C9ADC5DEA00000 PUSH1 0x5 SSTORE PUSH1 0x1 PUSH1 0x1 PUSH1 0xA0 SHL SUB AND SWAP1 DUP2 ISZERO DUP1 ISZERO PUSH2 0x154 JUMPI JUMPDEST DUP1 ISZERO PUSH2 0x14C JUMPI JUMPDEST PUSH2 0x13B JUMPI PUSH2 0x2710 LT PUSH2 0x12A JUMPI PUSH1 0x1 DUP1 SLOAD PUSH1 0x1 PUSH1 0x1 PUSH1 0xA0 SHL SUB NOT SWAP1 DUP2 AND CALLER OR SWAP1 SWAP2 SSTORE PUSH1 0x2 DUP1 SLOAD DUP3 AND SWAP3 SWAP1 SWAP3 OR SWAP1 SWAP2 SSTORE PUSH1 0x3 DUP1 SLOAD PUSH1 0x4 DUP1 SLOAD SWAP1 SWAP4 AND SWAP1 SWAP5 OR SWAP1 SWAP2 SSTORE PUSH1 0x1 PUSH1 0x1 PUSH1 0xB0 SHL SUB NOT SWAP1 SWAP3 AND PUSH1 0x1 PUSH1 0x1 PUSH1 0xA0 SHL SUB SWAP4 SWAP1 SWAP4 AND SWAP3 SWAP1 SWAP3 OR PUSH1 0xA0 SWAP3 SWAP1 SWAP3 SHL PUSH2 0xFFFF PUSH1 0xA0 SHL AND SWAP2 SWAP1 SWAP2 OR SWAP1 SSTORE PUSH1 0x40 MLOAD PUSH2 0x1234 SWAP1 DUP2 PUSH2 0x195 DUP3 CODECOPY RETURN JUMPDEST PUSH4 0xE0E54CED PUSH1 0xE0 SHL PUSH1 0x0 MSTORE PUSH1 0x4 PUSH1 0x0 REVERT JUMPDEST PUSH4 0xD92E233D PUSH1 0xE0 SHL PUSH1 0x0 MSTORE PUSH1 0x4 PUSH1 0x0 REVERT JUMPDEST POP DUP4 ISZERO PUSH2 0xAD JUMP JUMPDEST POP PUSH1 0x1 PUSH1 0x1 PUSH1 0xA0 SHL SUB DUP6 AND ISZERO PUSH2 0xA6 JUMP JUMPDEST PUSH1 0x0 DUP1 REVERT JUMPDEST PUSH4 0x4E487B71 PUSH1 0xE0 SHL PUSH1 0x0 MSTORE PUSH1 0x41 PUSH1 0x4 MSTORE PUSH1 0x24 PUSH1 0x0 REVERT JUMPDEST MLOAD SWAP1 PUSH1 0x1 PUSH1 0x1 PUSH1 0xA0 SHL SUB DUP3 AND DUP3 SUB PUSH2 0x165 JUMPI JUMP INVALID PUSH1 0x80 DUP1 PUSH1 0x40 MSTORE PUSH1 0x4 CALLDATASIZE LT ISZERO PUSH2 0x97 JUMPI JUMPDEST POP CALLDATASIZE ISZERO PUSH2 0x52 JUMPI PUSH1 0x40 MLOAD PUSH3 0x461BCD PUSH1 0xE5 SHL DUP2 MSTORE PUSH1 0x20 PUSH1 0x4 DUP3 ADD MSTORE PUSH1 0x14 PUSH1 0x24 DUP3 ADD MSTORE PUSH20 0x14995CD85B194E881A5B9D985B1A590818D85B1B PUSH1 0x62 SHL PUSH1 0x44 DUP3 ADD MSTORE PUSH1 0x64 SWAP1 REVERT JUMPDEST PUSH1 0x40 MLOAD PUSH3 0x461BCD PUSH1 0xE5 SHL DUP2 MSTORE PUSH1 0x20 PUSH1 0x4 DUP3 ADD MSTORE PUSH1 0x1C PUSH1 0x24 DUP3 ADD MSTORE PUSH32 0x526573616C653A2073656E6420766961206275795469636B6574282900000000 PUSH1 0x44 DUP3 ADD MSTORE PUSH1 0x64 SWAP1 REVERT JUMPDEST PUSH1 0x0 SWAP1 DUP2 CALLDATALOAD PUSH1 0xE0 SHR SWAP1 DUP2 PUSH4 0x107A274A EQ PUSH2 0xFD8 JUMPI POP DUP1 PUSH4 0x305A67A8 EQ PUSH2 0xF20 JUMPI DUP1 PUSH4 0x305A905A EQ PUSH2 0xB4D JUMPI DUP1 PUSH4 0x36E79A5A EQ PUSH2 0xA6E JUMPI DUP1 PUSH4 0x46904840 EQ PUSH2 0xA45 JUMPI DUP1 PUSH4 0x6188C42D EQ PUSH2 0xA1C JUMPI DUP1 PUSH4 0x67DD74CA EQ PUSH2 0x478 JUMPI DUP1 PUSH4 0x8DA5CB5B EQ PUSH2 0x44F JUMPI DUP1 PUSH4 0xC63ADB2B EQ PUSH2 0x42A JUMPI DUP1 PUSH4 0xDE74E57B EQ PUSH2 0x3BB JUMPI DUP1 PUSH4 0xE09B2A62 EQ PUSH2 0x392 JUMPI DUP1 PUSH4 0xE38D6B5C EQ PUSH2 0x374 JUMPI DUP1 PUSH4 0xE74B981B EQ PUSH2 0x2C3 JUMPI DUP1 PUSH4 0xF2FDE38B EQ PUSH2 0x1FB JUMPI PUSH4 0xF43952E3 SUB PUSH2 0xF JUMPI CALLVALUE PUSH2 0x1F8 JUMPI PUSH1 0x20 CALLDATASIZE PUSH1 0x3 NOT ADD SLT PUSH2 0x1F8 JUMPI PUSH1 0x1 SLOAD PUSH1 0x4 CALLDATALOAD SWAP1 PUSH1 0x1 PUSH1 0x1 PUSH1 0xA0 SHL SUB AND CALLER SUB PUSH2 0x1E9 JUMPI DUP1 ISZERO PUSH2 0x1A4 JUMPI PUSH1 0x20 DUP2 PUSH32 0x202E0BA938A78B3EDEA663296E8A06054C65DF48FC652817D1E4231351A4C1E2 SWAP3 PUSH1 0x5 SSTORE PUSH1 0x40 MLOAD SWAP1 DUP2 MSTORE LOG1 DUP1 RETURN JUMPDEST PUSH1 0x40 MLOAD PUSH3 0x461BCD PUSH1 0xE5 SHL DUP2 MSTORE PUSH1 0x20 PUSH1 0x4 DUP3 ADD MSTORE PUSH1 0x1D PUSH1 0x24 DUP3 ADD MSTORE PUSH32 0x526573616C653A206D6178207072696365206D757374206265203E2030000000 PUSH1 0x44 DUP3 ADD MSTORE PUSH1 0x64 SWAP1 REVERT JUMPDEST PUSH4 0x30CD7471 PUSH1 0xE0 SHL DUP3 MSTORE PUSH1 0x4 DUP3 REVERT JUMPDEST DUP1 REVERT JUMPDEST POP CALLVALUE PUSH2 0x1F8 JUMPI PUSH1 0x20 CALLDATASIZE PUSH1 0x3 NOT ADD SLT PUSH2 0x1F8 JUMPI PUSH1 0x4 CALLDATALOAD PUSH1 0x1 PUSH1 0x1 PUSH1 0xA0 SHL SUB DUP2 AND SWAP1 DUP2 SWAP1 SUB PUSH2 0x2BF JUMPI PUSH1 0x1 SLOAD PUSH1 0x1 PUSH1 0x1 PUSH1 0xA0 SHL SUB DUP2 AND CALLER DUP2 SWAP1 SUB PUSH2 0x2B0 JUMPI DUP3 ISZERO PUSH2 0x274 JUMPI DUP3 SWAP1 PUSH32 0x8BE0079C531659141344CD1FD0A4F28419497F9722A3DAAFE3B4186F6B6457E0 DUP6 DUP1 LOG3 PUSH1 0x1 PUSH1 0x1 PUSH1 0xA0 SHL SUB NOT AND OR PUSH1 0x1 SSTORE DUP1 RETURN JUMPDEST PUSH1 0x40 MLOAD PUSH3 0x461BCD PUSH1 0xE5 SHL DUP2 MSTORE PUSH1 0x20 PUSH1 0x4 DUP3 ADD MSTORE PUSH1 0x14 PUSH1 0x24 DUP3 ADD MSTORE PUSH20 0x526573616C653A207A65726F2061646472657373 PUSH1 0x60 SHL PUSH1 0x44 DUP3 ADD MSTORE PUSH1 0x64 SWAP1 REVERT JUMPDEST PUSH4 0x30CD7471 PUSH1 0xE0 SHL DUP5 MSTORE PUSH1 0x4 DUP5 REVERT JUMPDEST POP DUP1 REVERT JUMPDEST POP CALLVALUE PUSH2 0x1F8 JUMPI PUSH1 0x20 CALLDATASIZE PUSH1 0x3 NOT ADD SLT PUSH2 0x1F8 JUMPI PUSH1 0x4 CALLDATALOAD PUSH1 0x1 PUSH1 0x1 PUSH1 0xA0 SHL SUB DUP2 AND SWAP1 DUP2 SWAP1 SUB PUSH2 0x2BF JUMPI PUSH1 0x1 SLOAD PUSH1 0x1 PUSH1 0x1 PUSH1 0xA0 SHL SUB AND CALLER SUB PUSH2 0x1E9 JUMPI DUP1 ISZERO PUSH2 0x33B JUMPI PUSH1 0x4 DUP1 SLOAD PUSH1 0x1 PUSH1 0x1 PUSH1 0xA0 SHL SUB NOT AND DUP3 OR SWAP1 SSTORE PUSH32 0x7A7B5A0A132F9E0581EB8527F66EAE9EE89C2A3E79D4AC7E41A1F1F4D48A7FC2 DUP3 DUP1 LOG2 DUP1 RETURN JUMPDEST PUSH1 0x40 MLOAD PUSH3 0x461BCD PUSH1 0xE5 SHL DUP2 MSTORE PUSH1 0x20 PUSH1 0x4 DUP3 ADD MSTORE PUSH1 0x11 PUSH1 0x24 DUP3 ADD MSTORE PUSH17 0x2932B9B0B6329D103D32B9379030B23239 PUSH1 0x79 SHL PUSH1 0x44 DUP3 ADD MSTORE PUSH1 0x64 SWAP1 REVERT JUMPDEST POP CALLVALUE PUSH2 0x1F8 JUMPI DUP1 PUSH1 0x3 NOT CALLDATASIZE ADD SLT PUSH2 0x1F8 JUMPI PUSH1 0x20 PUSH1 0x5 SLOAD PUSH1 0x40 MLOAD SWAP1 DUP2 MSTORE RETURN JUMPDEST POP CALLVALUE PUSH2 0x1F8 JUMPI DUP1 PUSH1 0x3 NOT CALLDATASIZE ADD SLT PUSH2 0x1F8 JUMPI PUSH1 0x3 SLOAD PUSH1 0x40 MLOAD PUSH1 0x1 PUSH1 0x1 PUSH1 0xA0 SHL SUB SWAP1 SWAP2 AND DUP2 MSTORE PUSH1 0x20 SWAP1 RETURN JUMPDEST POP CALLVALUE PUSH2 0x1F8 JUMPI PUSH1 0x20 CALLDATASIZE PUSH1 0x3 NOT ADD SLT PUSH2 0x1F8 JUMPI PUSH1 0x4 DUP1 CALLDATALOAD DUP3 MSTORE PUSH1 0x6 PUSH1 0x20 SWAP1 DUP2 MSTORE PUSH1 0x40 SWAP3 DUP4 SWAP1 KECCAK256 DUP1 SLOAD PUSH1 0x1 DUP3 ADD SLOAD PUSH1 0x2 DUP4 ADD SLOAD PUSH1 0x3 DUP5 ADD SLOAD SWAP4 SWAP1 SWAP6 ADD SLOAD DUP7 MLOAD SWAP3 DUP4 MSTORE SWAP4 DUP3 ADD MSTORE PUSH1 0x1 PUSH1 0x1 PUSH1 0xA0 SHL SUB SWAP1 SWAP4 AND SWAP4 DUP4 ADD SWAP4 SWAP1 SWAP4 MSTORE PUSH1 0x60 DUP3 ADD SWAP3 SWAP1 SWAP3 MSTORE PUSH1 0xFF SWAP1 SWAP2 AND ISZERO ISZERO PUSH1 0x80 DUP3 ADD MSTORE PUSH1 0xA0 SWAP1 RETURN JUMPDEST POP CALLVALUE PUSH2 0x1F8 JUMPI DUP1 PUSH1 0x3 NOT CALLDATASIZE ADD SLT PUSH2 0x1F8 JUMPI PUSH1 0x20 PUSH2 0xFFFF PUSH1 0x3 SLOAD PUSH1 0xA0 SHR AND PUSH1 0x40 MLOAD SWAP1 DUP2 MSTORE RETURN JUMPDEST POP CALLVALUE PUSH2 0x1F8 JUMPI DUP1 PUSH1 0x3 NOT CALLDATASIZE ADD SLT PUSH2 0x1F8 JUMPI PUSH1 0x1 SLOAD PUSH1 0x40 MLOAD PUSH1 0x1 PUSH1 0x1 PUSH1 0xA0 SHL SUB SWAP1 SWAP2 AND DUP2 MSTORE PUSH1 0x20 SWAP1 RETURN JUMPDEST POP PUSH1 0x20 CALLDATASIZE PUSH1 0x3 NOT ADD SLT PUSH2 0x1F8 JUMPI PUSH1 0x4 CALLDATALOAD PUSH1 0x2 DUP3 SLOAD EQ PUSH2 0xA0D JUMPI PUSH1 0x2 DUP3 SSTORE DUP1 DUP3 MSTORE PUSH1 0x6 PUSH1 0x20 MSTORE PUSH1 0x40 DUP3 KECCAK256 PUSH1 0x4 DUP2 ADD SWAP1 DUP2 SLOAD PUSH2 0x4B4 PUSH1 0xFF DUP3 AND PUSH2 0x10B9 JUMP JUMPDEST PUSH1 0x3 DUP3 ADD SLOAD SWAP1 DUP2 CALLVALUE LT PUSH2 0x9C8 JUMPI PUSH1 0x2 DUP4 ADD SWAP4 PUSH1 0x1 DUP1 PUSH1 0xA0 SHL SUB DUP6 SLOAD AND SWAP2 DUP3 CALLER EQ PUSH2 0x98B JUMPI PUSH1 0x1 DUP1 PUSH1 0xA0 SHL SUB PUSH1 0x2 SLOAD AND PUSH1 0x20 DUP7 SLOAD PUSH1 0x24 PUSH1 0x40 MLOAD DUP1 SWAP5 DUP2 SWAP4 PUSH4 0x2E311507 PUSH1 0xE1 SHL DUP4 MSTORE PUSH1 0x4 DUP4 ADD MSTORE GAS STATICCALL SWAP1 DUP2 ISZERO PUSH2 0x8B1 JUMPI PUSH2 0x51E SWAP2 PUSH1 0xFF SWAP2 DUP12 SWAP2 PUSH2 0x95C JUMPI JUMPDEST POP AND ISZERO PUSH2 0x114F JUMP JUMPDEST PUSH1 0x3 SLOAD PUSH1 0x40 MLOAD PUSH4 0x31A9108F PUSH1 0xE1 SHL DUP2 MSTORE PUSH1 0x4 DUP2 ADD DUP10 SWAP1 MSTORE PUSH1 0x1 PUSH1 0x1 PUSH1 0xA0 SHL SUB SWAP1 SWAP2 AND SWAP1 PUSH1 0x20 DUP2 PUSH1 0x24 DUP2 DUP6 GAS STATICCALL DUP1 ISZERO PUSH2 0x8ED JUMPI DUP6 SWAP2 DUP12 SWAP2 PUSH2 0x93D JUMPI JUMPDEST POP PUSH1 0x1 PUSH1 0x1 PUSH1 0xA0 SHL SUB AND SUB PUSH2 0x8F8 JUMPI PUSH1 0x40 MLOAD PUSH4 0xE985E9C5 PUSH1 0xE0 SHL DUP2 MSTORE PUSH1 0x1 PUSH1 0x1 PUSH1 0xA0 SHL SUB DUP6 AND PUSH1 0x4 DUP3 ADD MSTORE ADDRESS PUSH1 0x24 DUP3 ADD MSTORE SWAP1 PUSH1 0x20 DUP3 PUSH1 0x44 DUP2 DUP5 GAS STATICCALL SWAP2 DUP3 ISZERO PUSH2 0x8ED JUMPI DUP11 SWAP3 PUSH2 0x8BC JUMPI JUMPDEST POP DUP2 ISZERO PUSH2 0x842 JUMPI JUMPDEST POP ISZERO PUSH2 0x7FD JUMPI PUSH1 0xFF NOT AND SWAP1 SSTORE PUSH1 0x3 SLOAD SWAP1 PUSH2 0xFFFF DUP3 PUSH1 0xA0 SHR AND DUP1 DUP5 MUL SWAP1 DUP5 DUP3 DIV EQ DUP5 ISZERO OR ISZERO PUSH2 0x7E9 JUMPI PUSH2 0x2710 DUP9 SWAP2 DIV SWAP7 PUSH2 0x5E3 DUP9 DUP7 PUSH2 0x119B JUMP JUMPDEST SWAP4 PUSH1 0x1 PUSH1 0x1 PUSH1 0xA0 SHL SUB AND SWAP3 DUP4 EXTCODESIZE ISZERO PUSH2 0x7E5 JUMPI PUSH1 0x64 SWAP1 DUP4 PUSH1 0x40 MLOAD SWAP6 DUP7 SWAP5 DUP6 SWAP4 PUSH4 0x21421707 PUSH1 0xE1 SHL DUP6 MSTORE PUSH1 0x4 DUP6 ADD MSTORE CALLER PUSH1 0x24 DUP6 ADD MSTORE PUSH1 0x44 DUP5 ADD MSTORE GAS CALL DUP1 ISZERO PUSH2 0x7DA JUMPI PUSH2 0x7C6 JUMPI JUMPDEST POP DUP6 SWAP1 DUP6 PUSH2 0x75A JUMPI JUMPDEST DUP1 PUSH2 0x6EC JUMPI JUMPDEST POP POP DUP1 CALLVALUE GT PUSH2 0x691 JUMPI JUMPDEST PUSH1 0x60 PUSH32 0xFFFC3DEB35AA9E4517F4B252905C151B319D34187DB6992ABDC3DCD1B0AE382D SWAP2 PUSH1 0x1 DUP5 ADD SLOAD SWAP4 SLOAD SWAP5 PUSH1 0x1 DUP1 PUSH1 0xA0 SHL SUB SWAP1 SLOAD AND SWAP6 PUSH1 0x40 MLOAD SWAP2 CALLER DUP4 MSTORE PUSH1 0x20 DUP4 ADD MSTORE PUSH1 0x40 DUP3 ADD MSTORE LOG4 PUSH1 0x1 DUP2 SSTORE DUP1 RETURN JUMPDEST DUP5 DUP1 DUP1 DUP1 PUSH2 0x69F DUP6 CALLVALUE PUSH2 0x119B JUMP JUMPDEST CALLER GAS CALL PUSH2 0x6AA PUSH2 0x11BE JUMP JUMPDEST POP PUSH2 0x641 JUMPI PUSH1 0x40 MLOAD PUSH3 0x461BCD PUSH1 0xE5 SHL DUP2 MSTORE PUSH1 0x20 PUSH1 0x4 DUP3 ADD MSTORE PUSH1 0x15 PUSH1 0x24 DUP3 ADD MSTORE PUSH21 0x14995CD85B194E881C99599D5B990819985A5B1959 PUSH1 0x5A SHL PUSH1 0x44 DUP3 ADD MSTORE PUSH1 0x64 SWAP1 REVERT JUMPDEST DUP5 SLOAD DUP3 SWAP2 DUP3 SWAP2 DUP3 SWAP2 SWAP1 PUSH1 0x1 PUSH1 0x1 PUSH1 0xA0 SHL SUB AND GAS CALL PUSH2 0x708 PUSH2 0x11BE JUMP JUMPDEST POP ISZERO PUSH2 0x715 JUMPI DUP5 CODESIZE PUSH2 0x637 JUMP JUMPDEST PUSH1 0x40 MLOAD PUSH3 0x461BCD PUSH1 0xE5 SHL DUP2 MSTORE PUSH1 0x20 PUSH1 0x4 DUP3 ADD MSTORE PUSH1 0x1E PUSH1 0x24 DUP3 ADD MSTORE PUSH32 0x526573616C653A2073656C6C6572207472616E73666572206661696C65640000 PUSH1 0x44 DUP3 ADD MSTORE PUSH1 0x64 SWAP1 REVERT JUMPDEST SWAP1 DUP1 DUP1 DUP1 DUP9 PUSH1 0x1 DUP1 PUSH1 0xA0 SHL SUB PUSH1 0x4 SLOAD AND GAS CALL PUSH2 0x774 PUSH2 0x11BE JUMP JUMPDEST POP ISZERO PUSH2 0x781 JUMPI DUP6 SWAP1 PUSH2 0x631 JUMP JUMPDEST PUSH1 0x40 MLOAD PUSH3 0x461BCD PUSH1 0xE5 SHL DUP2 MSTORE PUSH1 0x20 PUSH1 0x4 DUP3 ADD MSTORE PUSH1 0x1F PUSH1 0x24 DUP3 ADD MSTORE PUSH32 0x526573616C653A20726F79616C7479207472616E73666572206661696C656400 PUSH1 0x44 DUP3 ADD MSTORE PUSH1 0x64 SWAP1 REVERT JUMPDEST DUP7 PUSH2 0x7D3 SWAP2 SWAP8 SWAP3 SWAP8 PUSH2 0x1097 JUMP JUMPDEST SWAP5 CODESIZE PUSH2 0x628 JUMP JUMPDEST PUSH1 0x40 MLOAD RETURNDATASIZE DUP10 DUP3 RETURNDATACOPY RETURNDATASIZE SWAP1 REVERT JUMPDEST DUP3 DUP1 REVERT JUMPDEST PUSH4 0x4E487B71 PUSH1 0xE0 SHL DUP9 MSTORE PUSH1 0x11 PUSH1 0x4 MSTORE PUSH1 0x24 DUP9 REVERT JUMPDEST PUSH1 0x40 MLOAD PUSH3 0x461BCD PUSH1 0xE5 SHL DUP2 MSTORE PUSH1 0x20 PUSH1 0x4 DUP3 ADD MSTORE PUSH1 0x18 PUSH1 0x24 DUP3 ADD MSTORE PUSH32 0x526573616C653A20617070726F76616C206D697373696E670000000000000000 PUSH1 0x44 DUP3 ADD MSTORE PUSH1 0x64 SWAP1 REVERT JUMPDEST PUSH1 0x24 SWAP2 POP PUSH1 0x20 SWAP1 PUSH1 0x40 MLOAD SWAP3 DUP4 DUP1 SWAP3 PUSH4 0x20604BF PUSH1 0xE2 SHL DUP3 MSTORE DUP13 PUSH1 0x4 DUP4 ADD MSTORE GAS STATICCALL SWAP1 DUP2 ISZERO PUSH2 0x8B1 JUMPI DUP10 SWAP2 PUSH2 0x882 JUMPI JUMPDEST POP PUSH1 0x1 PUSH1 0x1 PUSH1 0xA0 SHL SUB AND ADDRESS EQ CODESIZE PUSH2 0x5AA JUMP JUMPDEST PUSH2 0x8A4 SWAP2 POP PUSH1 0x20 RETURNDATASIZE PUSH1 0x20 GT PUSH2 0x8AA JUMPI JUMPDEST PUSH2 0x89C DUP2 DUP4 PUSH2 0x1097 JUMP JUMPDEST DUP2 ADD SWAP1 PUSH2 0x10FA JUMP JUMPDEST CODESIZE PUSH2 0x870 JUMP JUMPDEST POP RETURNDATASIZE PUSH2 0x892 JUMP JUMPDEST PUSH1 0x40 MLOAD RETURNDATASIZE DUP12 DUP3 RETURNDATACOPY RETURNDATASIZE SWAP1 REVERT JUMPDEST PUSH2 0x8DF SWAP2 SWAP3 POP PUSH1 0x20 RETURNDATASIZE PUSH1 0x20 GT PUSH2 0x8E6 JUMPI JUMPDEST PUSH2 0x8D7 DUP2 DUP4 PUSH2 0x1097 JUMP JUMPDEST DUP2 ADD SWAP1 PUSH2 0x111E JUMP JUMPDEST SWAP1 CODESIZE PUSH2 0x5A2 JUMP JUMPDEST POP RETURNDATASIZE PUSH2 0x8CD JUMP JUMPDEST PUSH1 0x40 MLOAD RETURNDATASIZE DUP13 DUP3 RETURNDATACOPY RETURNDATASIZE SWAP1 REVERT JUMPDEST PUSH1 0x40 MLOAD PUSH3 0x461BCD PUSH1 0xE5 SHL DUP2 MSTORE PUSH1 0x20 PUSH1 0x4 DUP3 ADD MSTORE PUSH1 0x1E PUSH1 0x24 DUP3 ADD MSTORE PUSH32 0x526573616C653A2073656C6C6572206E6F206C6F6E676572206F776E65720000 PUSH1 0x44 DUP3 ADD MSTORE PUSH1 0x64 SWAP1 REVERT JUMPDEST PUSH2 0x956 SWAP2 POP PUSH1 0x20 RETURNDATASIZE PUSH1 0x20 GT PUSH2 0x8AA JUMPI PUSH2 0x89C DUP2 DUP4 PUSH2 0x1097 JUMP JUMPDEST CODESIZE PUSH2 0x559 JUMP JUMPDEST PUSH2 0x97E SWAP2 POP PUSH1 0x20 RETURNDATASIZE PUSH1 0x20 GT PUSH2 0x984 JUMPI JUMPDEST PUSH2 0x976 DUP2 DUP4 PUSH2 0x1097 JUMP JUMPDEST DUP2 ADD SWAP1 PUSH2 0x1136 JUMP JUMPDEST CODESIZE PUSH2 0x516 JUMP JUMPDEST POP RETURNDATASIZE PUSH2 0x96C JUMP JUMPDEST PUSH1 0x40 MLOAD PUSH3 0x461BCD PUSH1 0xE5 SHL DUP2 MSTORE PUSH1 0x20 PUSH1 0x4 DUP3 ADD MSTORE PUSH1 0x15 PUSH1 0x24 DUP3 ADD MSTORE PUSH21 0x526573616C653A2073656C66207075726368617365 PUSH1 0x58 SHL PUSH1 0x44 DUP3 ADD MSTORE PUSH1 0x64 SWAP1 REVERT JUMPDEST PUSH1 0x40 MLOAD PUSH3 0x461BCD PUSH1 0xE5 SHL DUP2 MSTORE PUSH1 0x20 PUSH1 0x4 DUP3 ADD MSTORE PUSH1 0x1C PUSH1 0x24 DUP3 ADD MSTORE PUSH32 0x526573616C653A20696E73756666696369656E74207061796D656E7400000000 PUSH1 0x44 DUP3 ADD MSTORE PUSH1 0x64 SWAP1 REVERT JUMPDEST PUSH4 0x3EE5AEB5 PUSH1 0xE0 SHL DUP3 MSTORE PUSH1 0x4 DUP3 REVERT JUMPDEST POP CALLVALUE PUSH2 0x1F8 JUMPI DUP1 PUSH1 0x3 NOT CALLDATASIZE ADD SLT PUSH2 0x1F8 JUMPI PUSH1 0x2 SLOAD PUSH1 0x40 MLOAD PUSH1 0x1 PUSH1 0x1 PUSH1 0xA0 SHL SUB SWAP1 SWAP2 AND DUP2 MSTORE PUSH1 0x20 SWAP1 RETURN JUMPDEST POP CALLVALUE PUSH2 0x1F8 JUMPI DUP1 PUSH1 0x3 NOT CALLDATASIZE ADD SLT PUSH2 0x1F8 JUMPI PUSH1 0x4 SLOAD PUSH1 0x40 MLOAD PUSH1 0x1 PUSH1 0x1 PUSH1 0xA0 SHL SUB SWAP1 SWAP2 AND DUP2 MSTORE PUSH1 0x20 SWAP1 RETURN JUMPDEST POP CALLVALUE PUSH2 0x1F8 JUMPI PUSH1 0x20 CALLDATASIZE PUSH1 0x3 NOT ADD SLT PUSH2 0x1F8 JUMPI PUSH1 0x4 CALLDATALOAD PUSH2 0xFFFF DUP2 AND SWAP1 DUP2 DUP2 SUB PUSH2 0x7E5 JUMPI PUSH1 0x1 SLOAD PUSH1 0x1 PUSH1 0x1 PUSH1 0xA0 SHL SUB AND CALLER SUB PUSH2 0xB3E JUMPI PUSH2 0x2710 DUP3 GT PUSH2 0xAF9 JUMPI PUSH1 0x3 DUP1 SLOAD PUSH2 0xFFFF PUSH1 0xA0 SHL NOT AND PUSH1 0xA0 SWAP3 SWAP1 SWAP3 SHL PUSH2 0xFFFF PUSH1 0xA0 SHL AND SWAP2 SWAP1 SWAP2 OR SWAP1 SSTORE PUSH1 0x40 MLOAD SWAP1 DUP2 MSTORE PUSH32 0xDA0FDC743BF03C626BCAC6E6509AF1B15DFA6DABFDE58682F6706B85EFA9F9B4 SWAP1 PUSH1 0x20 SWAP1 LOG1 DUP1 RETURN JUMPDEST PUSH1 0x40 MLOAD PUSH3 0x461BCD PUSH1 0xE5 SHL DUP2 MSTORE PUSH1 0x20 PUSH1 0x4 DUP3 ADD MSTORE PUSH1 0x18 PUSH1 0x24 DUP3 ADD MSTORE PUSH32 0x526573616C653A20726F79616C747920746F6F20686967680000000000000000 PUSH1 0x44 DUP3 ADD MSTORE PUSH1 0x64 SWAP1 REVERT JUMPDEST PUSH4 0x30CD7471 PUSH1 0xE0 SHL DUP4 MSTORE PUSH1 0x4 DUP4 REVERT JUMPDEST POP CALLVALUE PUSH2 0x1F8 JUMPI PUSH1 0x40 CALLDATASIZE PUSH1 0x3 NOT ADD SLT PUSH2 0x1F8 JUMPI PUSH1 0x24 CALLDATALOAD PUSH1 0x4 CALLDATALOAD DUP2 ISZERO ISZERO DUP1 PUSH2 0xF14 JUMPI JUMPDEST ISZERO PUSH2 0xED7 JUMPI PUSH1 0x3 SLOAD PUSH1 0x40 MLOAD PUSH4 0x31A9108F PUSH1 0xE1 SHL DUP2 MSTORE PUSH1 0x4 DUP2 ADD DUP4 SWAP1 MSTORE PUSH1 0x1 PUSH1 0x1 PUSH1 0xA0 SHL SUB SWAP1 SWAP2 AND SWAP2 SWAP1 PUSH1 0x20 DUP2 PUSH1 0x24 DUP2 DUP7 GAS STATICCALL SWAP1 DUP2 ISZERO PUSH2 0xD3C JUMPI DUP6 SWAP2 PUSH2 0xEB8 JUMPI JUMPDEST POP CALLER PUSH1 0x1 PUSH1 0x1 PUSH1 0xA0 SHL SUB SWAP1 SWAP2 AND SUB PUSH2 0xE7F JUMPI PUSH1 0x40 MLOAD PUSH4 0xE985E9C5 PUSH1 0xE0 SHL DUP2 MSTORE CALLER PUSH1 0x4 DUP3 ADD MSTORE ADDRESS PUSH1 0x24 DUP3 ADD MSTORE PUSH1 0x20 DUP2 PUSH1 0x44 DUP2 DUP7 GAS STATICCALL SWAP1 DUP2 ISZERO PUSH2 0xD3C JUMPI DUP6 SWAP2 PUSH2 0xE60 JUMPI JUMPDEST POP DUP1 ISZERO PUSH2 0xE04 JUMPI JUMPDEST ISZERO PUSH2 0xDC8 JUMPI DUP1 DUP5 MSTORE PUSH1 0x6 PUSH1 0x20 MSTORE PUSH1 0xFF PUSH1 0x4 PUSH1 0x40 DUP7 KECCAK256 ADD SLOAD AND PUSH2 0xD8A JUMPI PUSH1 0x20 PUSH1 0x24 SWAP3 PUSH1 0x40 MLOAD SWAP4 DUP5 DUP1 SWAP3 PUSH4 0x33355E0B PUSH1 0xE1 SHL DUP3 MSTORE DUP6 PUSH1 0x4 DUP4 ADD MSTORE GAS STATICCALL SWAP2 DUP3 ISZERO PUSH2 0xD7F JUMPI DUP5 SWAP3 PUSH2 0xD47 JUMPI JUMPDEST POP PUSH1 0x2 SLOAD PUSH1 0x40 MLOAD PUSH4 0x2E311507 PUSH1 0xE1 SHL DUP2 MSTORE PUSH1 0x4 DUP2 ADD DUP5 SWAP1 MSTORE SWAP1 PUSH1 0x20 SWAP1 DUP3 SWAP1 PUSH1 0x24 SWAP1 DUP3 SWAP1 PUSH1 0x1 PUSH1 0x1 PUSH1 0xA0 SHL SUB AND GAS STATICCALL SWAP1 DUP2 ISZERO PUSH2 0xD3C JUMPI PUSH2 0xC8A SWAP2 PUSH1 0xFF SWAP2 DUP8 SWAP2 PUSH2 0x95C JUMPI POP AND ISZERO PUSH2 0x114F JUMP JUMPDEST PUSH1 0x40 MLOAD PUSH2 0xC96 DUP2 PUSH2 0x1065 JUMP JUMPDEST DUP3 DUP2 MSTORE PUSH1 0x4 PUSH1 0x20 DUP3 ADD SWAP2 DUP4 DUP4 MSTORE PUSH1 0x40 DUP2 ADD CALLER DUP2 MSTORE PUSH1 0x60 DUP3 ADD SWAP1 DUP8 DUP3 MSTORE PUSH1 0x80 DUP4 ADD SWAP5 PUSH1 0x1 DUP7 MSTORE DUP7 DUP11 MSTORE PUSH1 0x6 PUSH1 0x20 MSTORE PUSH1 0x40 DUP11 KECCAK256 SWAP4 MLOAD DUP5 SSTORE MLOAD PUSH1 0x1 DUP5 ADD SSTORE PUSH1 0x2 DUP4 ADD SWAP1 PUSH1 0x1 DUP1 PUSH1 0xA0 SHL SUB SWAP1 MLOAD AND PUSH12 0xFFFFFFFFFFFFFFFFFFFFFFFF PUSH1 0xA0 SHL DUP3 SLOAD AND OR SWAP1 SSTORE MLOAD PUSH1 0x3 DUP3 ADD SSTORE ADD SWAP1 MLOAD ISZERO ISZERO PUSH1 0xFF DUP1 NOT DUP4 SLOAD AND SWAP2 AND OR SWAP1 SSTORE PUSH1 0x40 MLOAD SWAP3 DUP4 MSTORE PUSH32 0x8B84647EC667515D9CE59E74AB9BB64476EC404345EBB9DFC3EA275BB6D8EE9B PUSH1 0x20 CALLER SWAP5 LOG4 DUP1 RETURN JUMPDEST PUSH1 0x40 MLOAD RETURNDATASIZE DUP8 DUP3 RETURNDATACOPY RETURNDATASIZE SWAP1 REVERT JUMPDEST SWAP1 SWAP2 POP PUSH1 0x20 DUP2 RETURNDATASIZE PUSH1 0x20 GT PUSH2 0xD77 JUMPI JUMPDEST DUP2 PUSH2 0xD63 PUSH1 0x20 SWAP4 DUP4 PUSH2 0x1097 JUMP JUMPDEST DUP2 ADD SUB SLT PUSH2 0xD73 JUMPI MLOAD SWAP1 CODESIZE PUSH2 0xC40 JUMP JUMPDEST DUP4 DUP1 REVERT JUMPDEST RETURNDATASIZE SWAP2 POP PUSH2 0xD56 JUMP JUMPDEST PUSH1 0x40 MLOAD RETURNDATASIZE DUP7 DUP3 RETURNDATACOPY RETURNDATASIZE SWAP1 REVERT JUMPDEST PUSH1 0x40 MLOAD PUSH3 0x461BCD PUSH1 0xE5 SHL DUP2 MSTORE PUSH1 0x20 PUSH1 0x4 DUP3 ADD MSTORE PUSH1 0x16 PUSH1 0x24 DUP3 ADD MSTORE PUSH22 0x14995CD85B194E88185B1C9958591E481B1A5CDD1959 PUSH1 0x52 SHL PUSH1 0x44 DUP3 ADD MSTORE PUSH1 0x64 SWAP1 REVERT JUMPDEST PUSH1 0x40 MLOAD PUSH3 0x461BCD PUSH1 0xE5 SHL DUP2 MSTORE PUSH1 0x20 PUSH1 0x4 DUP3 ADD MSTORE PUSH1 0x14 PUSH1 0x24 DUP3 ADD MSTORE PUSH20 0x14995CD85B194E881B9BDD08185C1C1C9BDD9959 PUSH1 0x62 SHL PUSH1 0x44 DUP3 ADD MSTORE PUSH1 0x64 SWAP1 REVERT JUMPDEST POP PUSH1 0x40 MLOAD PUSH4 0x20604BF PUSH1 0xE2 SHL DUP2 MSTORE PUSH1 0x4 DUP2 ADD DUP3 SWAP1 MSTORE PUSH1 0x20 DUP2 PUSH1 0x24 DUP2 DUP7 GAS STATICCALL SWAP1 DUP2 ISZERO PUSH2 0xD3C JUMPI DUP6 SWAP2 PUSH2 0xE41 JUMPI JUMPDEST POP PUSH1 0x1 PUSH1 0x1 PUSH1 0xA0 SHL SUB AND ADDRESS EQ PUSH2 0xBF8 JUMP JUMPDEST PUSH2 0xE5A SWAP2 POP PUSH1 0x20 RETURNDATASIZE PUSH1 0x20 GT PUSH2 0x8AA JUMPI PUSH2 0x89C DUP2 DUP4 PUSH2 0x1097 JUMP JUMPDEST CODESIZE PUSH2 0xE30 JUMP JUMPDEST PUSH2 0xE79 SWAP2 POP PUSH1 0x20 RETURNDATASIZE PUSH1 0x20 GT PUSH2 0x8E6 JUMPI PUSH2 0x8D7 DUP2 DUP4 PUSH2 0x1097 JUMP JUMPDEST CODESIZE PUSH2 0xBF0 JUMP JUMPDEST PUSH1 0x40 MLOAD PUSH3 0x461BCD PUSH1 0xE5 SHL DUP2 MSTORE PUSH1 0x20 PUSH1 0x4 DUP3 ADD MSTORE PUSH1 0x11 PUSH1 0x24 DUP3 ADD MSTORE PUSH17 0x2932B9B0B6329D103737BA1037BBB732B9 PUSH1 0x79 SHL PUSH1 0x44 DUP3 ADD MSTORE PUSH1 0x64 SWAP1 REVERT JUMPDEST PUSH2 0xED1 SWAP2 POP PUSH1 0x20 RETURNDATASIZE PUSH1 0x20 GT PUSH2 0x8AA JUMPI PUSH2 0x89C DUP2 DUP4 PUSH2 0x1097 JUMP JUMPDEST CODESIZE PUSH2 0xBAE JUMP JUMPDEST PUSH1 0x40 MLOAD PUSH3 0x461BCD PUSH1 0xE5 SHL DUP2 MSTORE PUSH1 0x20 PUSH1 0x4 DUP3 ADD MSTORE PUSH1 0x15 PUSH1 0x24 DUP3 ADD MSTORE PUSH21 0x526573616C653A20696E76616C6964207072696365 PUSH1 0x58 SHL PUSH1 0x44 DUP3 ADD MSTORE PUSH1 0x64 SWAP1 REVERT JUMPDEST POP PUSH1 0x5 SLOAD DUP3 GT ISZERO PUSH2 0xB6E JUMP JUMPDEST POP CALLVALUE PUSH2 0x1F8 JUMPI PUSH1 0x20 CALLDATASIZE PUSH1 0x3 NOT ADD SLT PUSH2 0x1F8 JUMPI PUSH1 0x4 CALLDATALOAD DUP1 DUP3 MSTORE PUSH1 0x6 PUSH1 0x20 MSTORE PUSH1 0x40 DUP3 KECCAK256 PUSH1 0x4 DUP2 ADD DUP1 SLOAD PUSH2 0xF53 PUSH1 0xFF DUP3 AND PUSH2 0x10B9 JUMP JUMPDEST PUSH1 0x2 DUP4 ADD SLOAD PUSH1 0x1 PUSH1 0x1 PUSH1 0xA0 SHL SUB AND CALLER SUB PUSH2 0xF9E JUMPI PUSH1 0xFF NOT AND SWAP1 SSTORE SLOAD PUSH1 0x40 MLOAD SWAP2 DUP4 DUP4 MSTORE PUSH32 0x8B84647EC667515D9CE59E74AB9BB64476EC404345EBB9DFC3EA275BB6D8EE9B PUSH1 0x20 CALLER SWAP5 LOG4 DUP1 RETURN JUMPDEST PUSH1 0x40 MLOAD PUSH3 0x461BCD PUSH1 0xE5 SHL DUP2 MSTORE PUSH1 0x20 PUSH1 0x4 DUP3 ADD MSTORE PUSH1 0x12 PUSH1 0x24 DUP3 ADD MSTORE PUSH18 0x2932B9B0B6329D103737BA1039B2B63632B9 PUSH1 0x71 SHL PUSH1 0x44 DUP3 ADD MSTORE PUSH1 0x64 SWAP1 REVERT JUMPDEST DUP3 CALLVALUE PUSH2 0x1F8 JUMPI PUSH1 0x20 CALLDATASIZE PUSH1 0x3 NOT ADD SLT PUSH2 0x1F8 JUMPI PUSH1 0x40 SWAP1 PUSH1 0x4 CALLDATALOAD DUP2 MSTORE PUSH1 0x6 PUSH1 0x20 MSTORE KECCAK256 PUSH2 0x1001 DUP3 PUSH2 0x1065 JUMP JUMPDEST DUP1 SLOAD DUP1 DUP4 MSTORE PUSH1 0x1 DUP3 ADD SLOAD PUSH1 0x20 DUP1 DUP6 ADD DUP3 SWAP1 MSTORE PUSH1 0x2 DUP5 ADD SLOAD PUSH1 0x1 PUSH1 0x1 PUSH1 0xA0 SHL SUB AND PUSH1 0x40 DUP1 DUP8 ADD DUP3 SWAP1 MSTORE PUSH1 0x3 DUP7 ADD SLOAD PUSH1 0x60 DUP1 DUP10 ADD DUP3 SWAP1 MSTORE PUSH1 0x4 SWAP1 SWAP8 ADD SLOAD PUSH1 0xFF AND ISZERO ISZERO PUSH1 0x80 SWAP9 DUP10 ADD DUP2 SWAP1 MSTORE DUP3 MLOAD SWAP7 DUP8 MSTORE SWAP4 DUP7 ADD SWAP5 SWAP1 SWAP5 MSTORE DUP5 ADD MSTORE SWAP3 DUP3 ADD MSTORE SWAP2 DUP3 ADD MSTORE PUSH1 0xA0 SWAP1 RETURN JUMPDEST PUSH1 0xA0 DUP2 ADD SWAP1 DUP2 LT PUSH8 0xFFFFFFFFFFFFFFFF DUP3 GT OR PUSH2 0x1081 JUMPI PUSH1 0x40 MSTORE JUMP JUMPDEST PUSH4 0x4E487B71 PUSH1 0xE0 SHL PUSH1 0x0 MSTORE PUSH1 0x41 PUSH1 0x4 MSTORE PUSH1 0x24 PUSH1 0x0 REVERT JUMPDEST SWAP1 PUSH1 0x1F DUP1 NOT SWAP2 ADD AND DUP2 ADD SWAP1 DUP2 LT PUSH8 0xFFFFFFFFFFFFFFFF DUP3 GT OR PUSH2 0x1081 JUMPI PUSH1 0x40 MSTORE JUMP JUMPDEST ISZERO PUSH2 0x10C0 JUMPI JUMP JUMPDEST PUSH1 0x40 MLOAD PUSH3 0x461BCD PUSH1 0xE5 SHL DUP2 MSTORE PUSH1 0x20 PUSH1 0x4 DUP3 ADD MSTORE PUSH1 0x12 PUSH1 0x24 DUP3 ADD MSTORE PUSH18 0x14995CD85B194E881B9BDD081B1A5CDD1959 PUSH1 0x72 SHL PUSH1 0x44 DUP3 ADD MSTORE PUSH1 0x64 SWAP1 REVERT JUMPDEST SWAP1 DUP2 PUSH1 0x20 SWAP2 SUB SLT PUSH2 0x1119 JUMPI MLOAD PUSH1 0x1 PUSH1 0x1 PUSH1 0xA0 SHL SUB DUP2 AND DUP2 SUB PUSH2 0x1119 JUMPI SWAP1 JUMP JUMPDEST PUSH1 0x0 DUP1 REVERT JUMPDEST SWAP1 DUP2 PUSH1 0x20 SWAP2 SUB SLT PUSH2 0x1119 JUMPI MLOAD DUP1 ISZERO ISZERO DUP2 SUB PUSH2 0x1119 JUMPI SWAP1 JUMP JUMPDEST SWAP1 DUP2 PUSH1 0x20 SWAP2 SUB SLT PUSH2 0x1119 JUMPI MLOAD PUSH1 0xFF DUP2 AND DUP2 SUB PUSH2 0x1119 JUMPI SWAP1 JUMP JUMPDEST ISZERO PUSH2 0x1156 JUMPI JUMP JUMPDEST PUSH1 0x40 MLOAD PUSH3 0x461BCD PUSH1 0xE5 SHL DUP2 MSTORE PUSH1 0x20 PUSH1 0x4 DUP3 ADD MSTORE PUSH1 0x1A PUSH1 0x24 DUP3 ADD MSTORE PUSH32 0x526573616C653A206576656E74206E6F74207570636F6D696E67000000000000 PUSH1 0x44 DUP3 ADD MSTORE PUSH1 0x64 SWAP1 REVERT JUMPDEST SWAP2 SWAP1 DUP3 SUB SWAP2 DUP3 GT PUSH2 0x11A8 JUMPI JUMP JUMPDEST PUSH4 0x4E487B71 PUSH1 0xE0 SHL PUSH1 0x0 MSTORE PUSH1 0x11 PUSH1 0x4 MSTORE PUSH1 0x24 PUSH1 0x0 REVERT JUMPDEST RETURNDATASIZE ISZERO PUSH2 0x11F9 JUMPI RETURNDATASIZE SWAP1 PUSH8 0xFFFFFFFFFFFFFFFF DUP3 GT PUSH2 0x1081 JUMPI PUSH1 0x40 MLOAD SWAP2 PUSH2 0x11ED PUSH1 0x1F DUP3 ADD PUSH1 0x1F NOT AND PUSH1 0x20 ADD DUP5 PUSH2 0x1097 JUMP JUMPDEST DUP3 MSTORE RETURNDATASIZE PUSH1 0x0 PUSH1 0x20 DUP5 ADD RETURNDATACOPY JUMP JUMPDEST PUSH1 0x60 SWAP1 JUMP INVALID LOG2 PUSH5 0x6970667358 0x22 SLT KECCAK256 SWAP10 PREVRANDAO 0x25 LOG2 XOR PUSH11 0x26E951954BF0073A206466 0xC9 STOP PUSH25 0x7573D10612F9838886A64F8F64736F6C634300081C00330000 "
        },
        "methodIdentifiers": {
          "buyTicket(uint256)": "67dd74ca",
          "cancelListing(uint256)": "305a67a8",
          "eventTicketing()": "6188c42d",
          "feeRecipient()": "46904840",
          "getListing(uint256)": "107a274a",
          "listTicket(uint256,uint256)": "305a905a",
          "listings(uint256)": "de74e57b",
          "maxPrice()": "e38d6b5c",
          "owner()": "8da5cb5b",
          "royaltyBps()": "c63adb2b",
          "setFeeRecipient(address)": "e74b981b",
          "setMaxPrice(uint256)": "f43952e3",
          "setRoyalty(uint16)": "36e79a5a",
          "ticketNft()": "e09b2a62",
          "transferOwnership(address)": "f2fde38b"
        }
      }
    }
  }
}